:100000000C94EE070C9426080C9426080C942608F1
:100010000C9426080C9426080C9426080C942608A8
:100020000C9426080C9426080C943F130C94B619D3
:100030000C94F92A0C9426080C9426080C94260893
:100040000C9426080C9426080C9426080C94260878
:100050000C9426080C946E140C9426080C94260814
:100060000C9426080C9426080C9426080C94260858
:100070000C9426080C9426080C9426080C94260848
:100080000C9426080C9426080C9426080C94260838
:100090000C9426080C9426080C9426080C94260828
:1000A0000C9426080C9426080C9426080631FF09A7
:1000B00074A1010975150026FF00952075088102BD
:1000C0000976150026FF00952075089102C00501EC
:1000D0000980A101850319012AB700150126B7007F
:1000E000950175108100C0050C0901A10185041955
:1000F000012AA002150126A002950175108100C0F9
:100100000660FF0961A1010962150026FF00952024
:10011000750881020963150026FF00952075089176
:1001200002C005010906A101050719E029E715002C
:10013000250195087501810205FF090315002501B8
:100140009501750881020507190029FF150026FF92
:1001500000950675088100050819012905950575A2
:10016000019102950175039101C04B4C3A207072C8
:100170006F636573735F70726573735F616E645FE5
:10018000686F6C645F6B657928633A2025752C2055
:10019000723A20257529202D20726573746F72655F
:1001A000206B65792D3E7374617465203D206B650D
:1001B000795F6E6F745F707265737365642E0A0089
:1001C0004B4C3A2070726F636573735F7072657326
:1001D000735F616E645F686F6C645F6B65792863E1
:1001E0003A2025752C20723A20257529202D207261
:1001F0006573756C74203D3D2066616C73652C20C1
:1002000070726F636573735F6D6F6E655F6B657939
:10021000282920616E64207461705F636F646531AA
:100220003628292E0A004B4C3A2070726F63657392
:10023000735F70726573735F616E645F686F6C6427
:100240005F6B657928633A2025752C20723A20254A
:100250007529202D2074696D65725F656C617073FE
:100260006564286B65792D3E74696D657229203E41
:100270003D20484F4C445F444554454354494F4EFC
:100280005F4455524154494F4E2E20696E766F6B34
:10029000652070726F636565735F686F6C64282991
:1002A0002E0A004B4C3A2070726F636573735F7057
:1002B000726573735F616E645F686F6C645F6B65BA
:1002C0007928633A2025752C20723A20257529203B
:1002D0002D2074696D65725F656C6170736564284B
:1002E0006B65792D3E74696D657229203C20484FFD
:1002F0004C445F444554454354494F4E5F44555226
:100300004154494F4E2E20696E766F6B6520707296
:100310006F636565735F74617028292E0A004B4C0A
:100320003A2070726F636573735F70726573735F89
:10033000616E645F686F6C645F6B657928633A20F7
:1003400025752C20723A20257529202D206B657982
:100350002D3E7374617465203D3D206B65795F6E41
:100360006F745F707265737365642E204368616E8D
:1003700067656420737461746520746F20707265A2
:10038000737365642E0A00010128000102E3010174
:100390000F0103E3000102E001010F0103E000018E
:1003A00001BD000101BE0001014F0001015000012B
:1003B000015200010111000102E30101110103E3F7
:1003C00000010106000102E30101040103E3000151
:1003D0000114000102E10101040103E10001010433
:1003E000000102E301012C0103E3000102E301012A
:1003F000160103E3000101AE000101AB000101ACF5
:100400000001012C000101170001010C000101098C
:10041000000102E35B0103E3000102E2010150017C
:1004200003E2000102E10101110103E1000102E226
:100430000101500103E2000102E00101500103E06B
:10044000000102E201014F0103E2000102E00101AB
:100450004F0103E0000102E13C0103E1000102E180
:100460003E0103E10001014F0001015000000000C6
:10047000000000000000000000000000000000007C
:10048000000000000000000000000000000000006C
:10049000007E0F00D4FFFFFFC700000078000000BF
:1004A00000000000002A2B280000000000000000CF
:1004B000000000000000000029000000002C1E3495
:1004C00020212224342627252E362D3738271E1F9B
:1004D000202122232425263333362E37381F0405C6
:1004E000060708090A0B0C0D0E0F10111213141534
:1004F000161718191A1B1C1D2F3130232D35040512
:10050000060708090A0B0C0D0E0F10111213141513
:10051000161718191A1B1C1D2F3130354C4B4C3A2D
:10052000206B633A203078253034582C20633A20F1
:1005300025752C20723A2025752C207072657373F6
:1005400065643A2025622C2074696D653A20257512
:100550002C20696E746572727570743A2025622C55
:1005600020636F756E743A2025750A006469737094
:100570006C61795F736574757032206661696C6552
:10058000640A0000DA0281FFD9F1DB20A4A62EAFB5
:10059000646973706C61795F666C69707065642002
:1005A0006661696C65640A0000A0C06F6C65645F79
:1005B000696E697420636D64206E6F726D616C206A
:1005C000726F746174696F6E206661696C65640A2C
:1005D0000000A1C86F6C65645F696E697420636D0B
:1005E00064207365742031206661696C65640A005B
:1005F00000AED580A81FD300408D1420004B4C3A8C
:10060000206173736572745F6D61786D69785F7373
:1006100074727563745F707265636F6E6469746918
:100620006F6E7328290A005B735D000A002530385D
:1006300062003A200025303258000A722F632030C1
:10064000313233343536370A0000556E6D757465B6
:1006500064004D75746564002C2000566F6C3A2060
:10066000004D6F64653A204D61630A004D6F64650B
:100670003A2057696E0A00417564696F3A20004C50
:10068000617965723A200000417564696F3A200013
:1006900053657373696F6E0043686F6F73696E673C
:1006A00020417564696F006F6C65645F72656E648C
:1006B000657239302064617461206661696C6564BB
:1006C0000A006F6C65645F72656E646572206461B8
:1006D0007461206661696C65640A006F6C65645FB3
:1006E00072656E646572206F666673657420636FF1
:1006F0006D6D616E64206661696C65640A00FD372A
:100700007A585A000004E6D6B446020021011600C9
:100710000000742FE5A3E0021901095D003D8889FE
:10072000C65436C3174FE4F60CC15DC0FA36E5C1B6
:1007300043D7D74455E56375BCDA936AE04923860D
:10074000AF688509641A4A624A2DAAF64E71E774A9
:100750009855DCD357A3C166BA47A45F89F22F220C
:100760009E684DCB4B30340127EE386FB68C596DF7
:100770002A2922F58B2C280EC878F3E0C68F00EBCF
:1007800085B7FB32B9D78B4E7F3071E19DC1805266
:100790000E7F48B7FA606D8B744DD5ADC5280BCC74
:1007A0001546ED8312679E057C7826C5D1ACE41A08
:1007B0008BD726F94BB8FA7D0092FD4B1B0098BAF7
:1007C000F5619A07E3C8AE724B93B2C814BF4D20CF
:1007D0001848126223B7327318FBF4AB3B4FAB7E61
:1007E000EF2BC971948BC643A9A2356024670EA76D
:1007F00023DAF6DAAA5F4172FEF588A17B6F411019
:1008000066CFD42AF4B64F437A356D374DD6ABA7B1
:1008100058DBBAEABB40C92FD2AD3B84FC99FBED53
:100820007F3836966E410000000036824D0F926888
:100830004B9A0001A5029A040000FCAEB025B1C499
:1008400067FB020000000004595A00002102220246
:10085000540055000000240025002600560000002A
:100860002100220023005700A8001E001F002000C6
:1008700000002A0000002700370058000000B25D89
:10088000B45DB35DB55D0000AB5D5200AA5DC35DB4
:100890000000A65DB15DA75DC45D0100A95D5100CA
:1008A000A85D000001000000AE5DB05D0100000029
:1008B000C05DB65DBF5DBE5D0000C15D5200C25D42
:1008C000C35D00005000B95D4F00C45D0100B75D1D
:1008D0005100B85D0000BF0000000100BD5D0100D7
:1008E0000000010001000100010000004000410083
:1008F0004200C35D00003D003E003F00C45D0100BA
:100900003A003B003C000000BF0000000100010075
:1009100001006F6C65645F6F6E20636D64206661BB
:10092000696C65640A0000AF6F6C65645F6F666632
:1009300020636D64206661696C65640A0000AE5BCB
:10094000435D005B445D005B535D005B575D005B96
:10095000525D0009027B00040100A0FA09040000B6
:1009600001030101000921110100012248000705CE
:1009700081030800010904010002030000000921AD
:100980001101000122220007058203200001070552
:1009900003032000010904020001030000000921F3
:1009A000110100012232000705840320000109041F
:1009B00003000203000000092111010001222200AE
:1009C000070585032000010705050320000112012A
:1009D000000200000008AC059C02030001020301B4
:1009E0001C037600690061006C003A006600360066
:1009F000340063003200620033006300000016031D
:100A00006D006F006E0065006E0075006D00700077
:100A100061006400000014036D006F006E0065004B
:100A200068007300690065006800000004030904A1
:100A30000101A9000101AA004B4C3A204153534542
:100A40005254205741524E494E472070726573737D
:100A50005F616E645F686F6C645F6B65795F69731B
:100A60005F68616E646C656428633A2025752C208C
:100A7000723A202575293A20206B65792D3E7374D2
:100A80006174652073686F756C64206265206B65A6
:100A9000795F707265737365642E0A0007087F08BA
:100AA00007003E5B4F5B3E003E6B4F6B3E001C3EC3
:100AB0007C3E1C00183C7E3C18001C577D571C00D7
:100AC0001C5E7F5E1C0000183C180000FFE7C3E7B7
:100AD000FF00001824180000FFE7DBE7FF003048A4
:100AE0003A060E00262979292600407F05050700D1
:100AF000407F05253F005A3CE73C5A007F3E1C1CC6
:100B00000800081C1C3E7F0014227F2214005F5F37
:100B1000005F5F0006097F017F00006689956A001B
:100B200060606060600094A2FFA2940008047E04EC
:100B3000080010207E20100008082A1C0800081C4D
:100B40002A0808001E10101010000C1E0C1E0C00AD
:100B500030383E383000060E3E0E06000000000021
:100B6000000000005F000000000700070000147F85
:100B7000147F1400242A7F2A1200231308646200C1
:100B8000364956205000000807030000001C22418F
:100B900000000041221C00002A1C7F1C2A000808BB
:100BA0003E080800008070300000080808080800AF
:100BB0000000606000002010080402003E5149451A
:100BC0003E0000427F4000007249494946002141F1
:100BD000494D33001814127F100027454545390050
:100BE0003C4A494931004121110907003649494928
:100BF0003600464949291E0000001400000000404C
:100C000034000000000814224100141414141400CD
:100C10000041221408000201590906003E415D59B5
:100C20004E007C1211127C007F49494936003E413A
:100C3000414122007F4141413E007F4949494100F5
:100C40007F09090901003E41415173007F080808EE
:100C50007F0000417F4100002040413F01007F08AC
:100C6000142241007F40404040007F021C027F0070
:100C70007F0408107F003E4141413E007F09090981
:100C800006003E4151215E007F0919294600264990
:100C90004949320003017F0103003F4040403F00CB
:100CA0001F2040201F003F4038403F0063140814BD
:100CB00063000304780403006159494D4300007F39
:100CC00041414100020408102000004141417F00E1
:100CD00004020102040040404040400000030708B5
:100CE00000002054547840007F28444438003844A1
:100CF00044442800384444287F0038545454180091
:100D000000087E09020018A4A49C78007F0804044F
:100D1000780000447D4000002040403D00007F10EE
:100D20002844000000417F4000007C0478047800E3
:100D30007C0804047800384444443800FC18242417
:100D4000180018242418FC007C08040408004854E7
:100D50005454240004043F4424003C4040207C00C0
:100D60001C2040201C003C4030403C0044281028FF
:100D700044004C9090907C004464544C4400000823
:100D800036410000000077000000004136080000F6
:100D90000201020402003C2623263C000000000061
:100DA0000000404040F0F8F8FF38FFF8F83FF8F84E
:100DB000FF38FFF8F8F040404000000000000080DD
:100DC000C0C0C0800000C0C08000000080C0C00063
:100DD000C0C0000080C0C00000000000C0C0C0C093
:100DE000C000C0C0000000000000000000000000C3
:100DF00000000000000000000000000000000000F3
:100E000000000000000000000000000000000000E2
:100E10000000000000000000000000C0F0F8FC3EF0
:100E20001E06010000007F4141417F007F4141419A
:100E30007F000080C0E07E5B4F5BFEC00000C00012
:100E4000DCD7DEDEDED7DC00C000000000000000E2
:100E50000000000000000000000000000000000092
:100E60000000494949FFFFFFFFE0DFBFBF00BFBFF0
:100E7000DFE0FFFFFFFF49494900000000001F3F7E
:100E80006060E0BF1F007F7F071E381E077F7F0066
:100E90007F7F0E1F3B716000000000007F7F0C0C05
:100EA0000C007E7E007F7E0303007F7E03037E7E38
:100EB00003037F7E000F3E703C063C703E0F003205
:100EC0007B49493F7E007F7E0303001E3F69696FB7
:100ED0002600000000000000000000030F1F3F3C40
:100EE0007870600000007F4141417F007F414141B7
:100EF0007F00307B7F7830202030787F3B000300FC
:100F00000F7F0F0F0F7F0F00030000000000000095
:100F100000000000000000000000000000000000D1
:100F20000000010101070F0F7F0F7F0F0F7E0F0FD2
:100F30007F0F7F0F0F07010101000000000000007C
:100F4000000000010100000000000000000000009F
:100F50000000000000000000000000000000000091
:100F60000000000000000000000000000000000081
:100F70000000000000000000000000000000000071
:100F80000000000000000000000000000000000061
:100F90000000000000000000000000000000000051
:100FA0000000000000000000000000000000000041
:100FB0000000000000000000000000000000000031
:100FC0000000000000000000000000000000000021
:100FD00000000000000000000000000011241FBEFF
:100FE000CFEFDAE0DEBFCDBF04B603FE18C08091BC
:100FF000580690915906A0915A06B0915B06873029
:10100000904BA740B04B59F41092580610925906D5
:1010100010925A0610925B06E0E0F8E3099512E0A0
:10102000A0E0B1E0EEEBFAE602C005900D92AA3422
:10103000B107D9F726E0AAE4B2E001C01D92A835B5
:10104000B207E1F70E94202B0C941B350C94000092
:10105000FF93EF93E0914A02F0914B02309709F031
:101060000995EF91FF910895FC018591803011F071
:10107000EFDFFBCF0895FF27E0E230E247FF0CC02F
:10108000419597FF09C0EDE2609570958095909528
:10109000611D711D811D911D27FF02C0219530E347
:1010A00050E2AA27660F771F881F991FAA1FA4174F
:1010B00010F0A41B63955A95A9F7AA3008F0A95F10
:1010C000A05DAF93F395611571058105910541F719
:1010D000ED3211F4EF93F395F21718F43F93F39573
:1010E000FBCF8F91B5DFFA95E1F70895E991F9917A
:1010F0008591803021F0853219F0AADFF9CF08956B
:1011000020E0E89455915532C1F3503311F46894BE
:1011100055915A3348F4505390F3220F022E220F68
:10112000220F200D250FF4CF0EF42195899199916E
:10113000533619F3533729F1533559F1BC01882738
:101140009927E8945C3621F4899199916894559196
:10115000543639F446EF7EF077FF0DC08FEF9FEFE6
:101160000AC055374AE039F0583540E121F052368F
:1011700042E009F00895FF93EF937DDFEF91FF9137
:10118000B7CFFF93EF93FC0181918030B9F360DF1B
:10119000FBCFFF93EF9368DFF1CFDF93CF93CDB712
:1011A000DEB72596A3DFCF91DF910895E8EDF0E05B
:1011B00080818E7F80831092E2001092DA0010927C
:1011C000E100A0EEB0E08C9181608C9380818F77FC
:1011D000808319BCA7EDB0E08C918E7F8C938081C9
:1011E0008F7E80831092DB0308952091E40030917C
:1011F000E50095E6A9012091EC00822F817020FF87
:1012000006C08091E80080FF06C080E0089520912C
:10121000E80022FD1AC080915706882389F08530A6
:1012200089F08091EB0085FD0FC02091E4003091A2
:10123000E50042175307F9F29150E1F684E0089572
:1012400082E0089583E0089581E00895EF92FF928F
:101250000F931F93CF937C018B010E94F508C82F39
:10126000811117C08091E80085FD0BC08091E800D6
:101270008E778093E8000E94F508882399F3C82FA1
:1012800008C0F70181917F018093F100015011099D
:1012900049F78C2FCF911F910F91FF90EF900895F8
:1012A000CF93FC0180915706843001F5C091E9008D
:1012B000CF702091EC00922F917020FD90E8C92B07
:1012C00082E08093E9008091E80080FF0CC050E04C
:1012D00040E060E270E0CF010E9426098091E800C2
:1012E0008E778093E800CF70C093E900CF91089586
:1012F0008091E90387FF13C08091E80082FF06C058
:101300008091E8008B778093E80004C080915706B5
:101310008111F2CF0895809157068823D9F38091E7
:10132000E80080FFF8CF8091E8008E77ECCF982F0F
:101330009093E900242F762F50E0891731F07091B7
:10134000EC002091ED005091F00021FD07C09F5F5F
:10135000973071F78093E90081E008953091EB00B8
:101360003E7F3093EB003091ED003D7F3093ED00F8
:101370003091EB0031603093EB007093EC002093E0
:10138000ED005093F0002091EE0027FDE0CF80E0CB
:101390000895CF92DF92EF92FF920F931F93CF9316
:1013A000DF93C8EDD0E088818F7E8883E7EDF0E0A1
:1013B00080818160808384E082BF81E08093DB0351
:1013C00088818E7F888302EE10E0F80110821092EF
:1013D000DA0081EEC82ED12CF601108288818F7739
:1013E000888388818068888388818F7D888319BC01
:1013F000109257061092E8031092E7031092E6034A
:1014000090EEE92EF12CF70180818B7F808388811B
:101410008160888342E060E080E00E949709F601E5
:1014200080818E7F8083F8018081816080838081CC
:1014300088608083F70180818E7F808388818061CE
:101440008883DF91CF911F910F91FF90EF90DF90F4
:10145000CF900895FC018091EF039091F0038617DF
:101460009707A0F06115710529F49091E8009E7727
:101470009093E80090E06115710551F4911108C056
:101480008091E80082FF34C080E00895BC01F2CF73
:10149000809157068823C1F18530C1F18091E80021
:1014A00083FD30C08091E80082FDEACF8091E800A2
:1014B00080FFE1CF8091F3002091F200382F611579
:1014C000710519F02830310558F091E028303105C8
:1014D00009F090E02091E8002E772093E800CBCF30
:1014E00081918093F100615071092F5F3F4FE7CFE9
:1014F00080915706882341F0853041F08091E800C3
:1015000083FFBECF81E0089582E0089583E00895CF
:10151000089508958091DD0308952FB7F8946091A0
:10152000D1037091D2038091D3039091D4032FBF44
:1015300008952091CE033091CF032817390771F019
:101540009093CF038093CE03E091CC03F091CD0331
:10155000309721F00084F185E02D099408952091C1
:10156000CA033091CB032817390771F09093CB034E
:101570008093CA03E091CC03F091CD03309721F022
:101580000680F781E02D09940895E091CC03F09155
:10159000CD03309721F00190F081E02D099480E097
:1015A0000895DC016091C6038091C703962F8913CB
:1015B00001C00895292F30E0F901EE0FFF1FE2541A
:1015C000FC4F408151814A175B07A1F487E08A9F55
:1015D000A0018B9F500D11244E555C4F81E0FA0104
:1015E00084839613E6CF2F5F3F4F237033272093DA
:1015F000C60308952F5F3F4F922F9370D8CF10925C
:101600003E0310923D03E2EAF3E08581811102C0BE
:1016100014821682379683E0EE3BF807B1F70895FF
:1016200081E0089580914B0491E0892780934B04D9
:1016300080E00895F894E82FE295EF70F0E031A192
:10164000282F2F7081E090E001C0880F2A95EAF7DB
:10165000982F9095932391A392A1892B82A378949C
:1016600008959091C40292FF06C0282F2871283057
:10167000F9F4877F846093FF06C0282F28712831F2
:10168000F1F4877E84612091C50220FF06C0382FC7
:1016900038713830D9F4877F816021FF06C0282F48
:1016A00028712831D1F4877E816194FD877E089569
:1016B000282F24712430F9F68B7F8860DCCF282F07
:1016C0002471243101F78B7E8861DDCF382F317191
:1016D000313019F78E7F8860E0CF282F21712131BA
:1016E00021F78E7E8861E1CFCF93DF93EC018238C2
:1016F000910581F1B0F58133910509F491C020F590
:101700008932910509F485C08A9709F490C0C11502
:1017100021E5D20708F0AEC0C11530E5D30708F0C7
:1017200011C1CF3BD10508F089C0C83AD10508F0F6
:10173000FEC0C53AD10508F0F2C0C430D105F8F4B6
:10174000C130D105E1F040C08533910509F45AC09C
:10175000C997E9F68091C402837089F0C0EED0E0A9
:101760000EC0833E910599F170F4803E910501F120
:10177000823E910561F68091C40282FD21C0CE01B6
:10178000DF91CF910895863E910561F1873E9105E5
:1017900071F1843E910509F0BACF8091C50281FFB5
:1017A000EECF8091C402C7EED0E084FD0DC0E7CF3C
:1017B0008091C40280FD14C19091C50290FFDFCFDB
:1017C000C3EED0E084FFDBCFD0E0C0E0D8CF809183
:1017D000C40282FD08C19091C50290FDBFCF84FF75
:1017E000CECFF2CF8091C40283FDDDCFC8CF8091F0
:1017F000C40283FDFBC09091C50291FFF0CFC4EEFF
:10180000D0E0BDCF8091C40285FFB9CFC9E2D0E05E
:10181000B6CF8091C40285FFB2CFC5E3D0E0AFCF91
:101820008091C40286FFABCFCAE2D0E0A8CF8091FE
:10183000C40286FFA4CFC1E3D0E0A1CFC11540E22E
:10184000D40780F4C11581E0D80708F098CFCF3BCA
:10185000D10509F4CEC0CE01805E9109089708F445
:101860008ECFB2CFC11590E4D90708F4ADCFDF70A9
:10187000D06A85CFC11525E5D20700F5C11534E53D
:10188000D30708F095C0C11543E5D40708F07CC024
:10189000C11582E5D80708F472C0CE01837099277C
:1018A00021E030E002C0220F331F8A95E2F7C6958F
:1018B000C69580E2C89FE00111245DC0C11599E57D
:1018C000D907A8F4C11528E5D20708F076C0C115DC
:1018D00036E5D30708F078CF8C2F0E94310BC82F44
:1018E000D0E0DC2FCC27CC27DF71D06248CFC115E8
:1018F0004AE5D40708F466C0CE019056811590429F
:1019000008F062CF8D2F8F710E94310B90E0982FDD
:10191000882788279F719C012C2BE901E6CFC55AA7
:10192000D0E0CE53DE4FC881D0E0D06428CFC85A73
:10193000D0E0CC0FDD1FCB53DE4F0990D881C02DF6
:10194000D4641DCFCE01E4E096958795EA95E1F742
:1019500083702C2F26952695237040E2249F9001BA
:101960001124382B8C2F8370C1E0D0E002C0CC0F43
:10197000DD1F8A95E2F7C22BD32BDC6800CFDC2F6A
:10198000CC27C16FD06AFBCECE018370992721E0AE
:1019900030E002C0220F331F8A95E2F7C695C69544
:1019A00090E2C99FE0011124C22BD32BDA68E7CE65
:1019B000DC2FCC27C46FD06AE2CEDC2FCC27C06FDF
:1019C000D06ADDCE8C2F8F700E94310B34E0D6951B
:1019D000C7953A95E1F7CF709C2FEC01D069CFCE37
:1019E000C9E3D0E0CCCEC2EED0E0C9CEC6EED0E0A6
:1019F000C6CEC0E0D0E7C3CE8091BA02882331F0D2
:101A00001092BA021092B9021092B802089580950D
:101A10009091B70298239093B70208951092AE0266
:101A20001092AD021092AC0208958091AB02811128
:101A30001092AB020895EEE4F2E08F3B19F410929D
:101A40004D0208959191891303C0DF0111971C92F3
:101A500092E0E435F907B1F70895AEE4B2E0EFEFB4
:101A600090E08F3B21F481E080934D0208952D9109
:101A7000821751F0EF3F19F4211101C0E92F9F5F48
:101A80009630A9F7EF3F09F408950E2E000CFF0BD6
:101A9000E45BFD4F828308958091AA0290916902D0
:101AA000981301C008958F5F8770FACF9E3F51F160
:101AB000292F220F220FE22FE90FE80F9E2F977098
:101AC000E695E695E69583E0E89FF0011124EB5A50
:101AD000FD4F50E040E080E0219130E0092E02C04F
:101AE000369527950A94E2F721703327042E01C01A
:101AF000220F0A94EAF7822B4F5F5F4F4330510564
:101B000059F7089580E008959E3F71F1292F220F23
:101B1000220FE22FE90FE80F8E2F877041E001C0FE
:101B2000440F8A95EAF7E695E695E69583E0E89F07
:101B3000F0011124EB5AFD4F30E020E070E05191AC
:101B4000DF011197CB01022E02C0969587950A946A
:101B5000E2F7817081958527842385278C932F5FF9
:101B60003F4F2330310559F70895829590E09C014D
:101B7000220F331F220F331F2C7C95958795959547
:101B800087958373282B30E0C901880F991F8A7AC3
:101B9000359527952575822B0895982F92959F70DE
:101BA00011F0892F94E0282F2695269511F09E5F3D
:101BB000822F869509F09F5F892F08959C013A95A1
:101BC00021153F4150F5FC01EE27F170BC0166275D
:101BD0007270AC01442754709C012227387094FF26
:101BE0000EC080E1EF2B09F480E0672B09F08062E2
:101BF000452B09F08064232B89F08068089581E0EB
:101C0000EF2B09F480E0672B09F08260452B09F087
:101C10008460232B19F08860089580E0089528E1FE
:101C2000FC0111922A95E9F7FC0126892160268B97
:101C30000895CF93DF93CDB7DEB7A0970FB6F89492
:101C4000DEBF0FBECDBFFE0133969EE1DF011D92C8
:101C50009A95E9F79DEF99838A83809129048B8374
:101C6000CE0101960E945009A0960FB6F894DEBFEF
:101C70000FBECDBFDF91CF910895CF93DF93682F33
:101C800081E06A3019F06D3029F480E0DF91CF9166
:101C90000C94CC0E809155069091560626E0FC01DE
:101CA000AFE4B6E001900D922A95E1F7603E08F4AA
:101CB0005AC026E0FC0111922A95E9F7C091550619
:101CC000D091560646E050E0BE018FE496E00E94B7
:101CD000A7349E012F543440892B41F1C90145E0BE
:101CE000969587954A95E1F741E050E0BA0102C028
:101CF000660F771F8A95E2F7CB0160914D047091D2
:101D00004E04862B972BB9016B5F7F4FE5E07695EC
:101D10006795EA95E1F702C0440F551F6A95E2F70F
:101D2000842B952B90934E0480934D042A5F3F4F54
:101D300040914C04642F70E0C9010E942834481B74
:101D4000463010F4240F311D211572E0370710F0D2
:101D500030E020E0215B3B4F309356062093550640
:101D6000DF91CF910895F6E06F9FB0011124645682
:101D7000754F46E050E00E946934A0CFCF93DF93C7
:101D8000EC01FE018491811103C0DF91CF91089590
:101D90000E943D0E2196F5CFCF93382FE091550646
:101DA000F0915606EF54F44020914C04622F70E0FD
:101DB000CF010E942834281B822F332361F066E074
:101DC0000E943C34C82FC15010F4CF91089580E296
:101DD0000E943D0EF8CF9F01280F311D2115324082
:101DE00018F080E0F0E0E0E08E0F9F2F911D815B06
:101DF0009B4F9093560680935506E7CF0E94BE0EE8
:101E000081E00C94CC0E0F931F93CF93DF93EC01E2
:101E1000FC0101900020E9F78F0101501109C01762
:101E2000D10728F0DF91CF911F910F9108958991EB
:101E30000E943D0EF4CFCF92DF92EF92FF920F936C
:101E40001F93CF93DF936C017B0164E670E088E71A
:101E50000E942733EC0197FD12C010E000E0F6016C
:101E6000E00FF11F849164E670E00E94A133EC0161
:101E7000892B29F40F5F1F4F0E151F0581F70E9454
:101E80002434CE01DF91CF911F910F91FF90EF90FD
:101E9000DF90CF90089580913B0390913C03911186
:101EA00003C091E089270895882389F062E070E0FB
:101EB0008DE399E00E941B0F892B39F088E299E0AD
:101EC0000E94340880913B03089510923B03809157
:101ED0003B03E7CFCF93C0913B0380913C03882322
:101EE000F1F00E948D0A605A75418F4F9F4F6093A9
:101EF0003703709338038093390390933A03C111E9
:101F00000CC062E070E086E299E00E941B0F892B12
:101F100049F082E199E00E943408C0913B038C2F84
:101F2000CF91089581E080933B03F7CF9FB7F8945A
:101F30001092D9039FBF90915706943009F048C082
:101F40002091E9002F703091EC00932F917030FDBB
:101F500090E8922B25E02093E9002091EB0020FFF0
:101F600034C02091EE0027FF30C02091D8032223F7
:101F700021F02091E80025FF28C01092D80326E028
:101F80003091E80035FF14C08093F1008091E800A3
:101F900085FD27C08091E80080FFFCCF8091E8009C
:101FA0008E778093E8009F709093E90080E0089519
:101FB00030915706343049F43091EB0035FD05C0BF
:101FC000215041F481E08093D8039F709093E90001
:101FD0008FEF0895EFE9FFE03197F1F700C00000BF
:101FE000CFCF8FB7F89421E02093D9038FBFDBCFF9
:101FF0008093D5037093D7036093D60380915706DF
:102000008430F9F48093E9008FEF9091E8008150DB
:1020100095FD06C095ED9A95F1F700008111F5CF79
:102020008091E80085FF0DC050E040E063E070E083
:1020300085ED93E00E9426098091E8008E778093D9
:10204000E8000895BC0184E00C94F80FBC0183E023
:102050000C94F80FCF93DF93EC0181E08093E900BB
:102060008FEF9091E800815095FD06C095ED9A950F
:10207000F1F700008111F5CF8091E80085FF14C0D1
:1020800050E040E068E070E0CE010E9426098091B7
:10209000E8008E778093E80088E0FE01AEEDB3E0C3
:1020A00001900D928A95E1F7DF91CF91089581E03B
:1020B0008093E00080E28093D8001092C9008FE105
:1020C0009EE40197F1F700C0000087E090EBDC018F
:1020D0008093580690935906A0935A06B0935B06D6
:1020E00088E19CE00FB6F894A895809360000FBE3D
:1020F00090936000FFCFCF93DF93C7E1D1E060E022
:10210000CE010E94DF342196C11584E0D807B9F7CB
:10211000DF91CF9108950F931F93CF93DF938901A0
:10212000843048F5653038F5453028F521153C45B3
:1021300031F42091310330913203232BE1F0C42F8D
:10214000D0E0CC0FDD1F9AE0699FC00DD11D112496
:1021500092E3899FC00DD11D1124612FCE01879676
:102160000E94DF34602FCE018896DF91CF911F91BE
:102170000F910C94DF34DF91CF911F910F9108954F
:10218000CF93C82F6FEF811168EA83E290E00E943D
:10219000DF346FEFC1116FE284E290E00E94DF3420
:1021A0006FEFC11162E885E290E0CF910C94DF34CB
:1021B0007F928F929F92AF92BF92CF92DF92EF92D7
:1021C000FF920F931F93CF93DF93CDB7DEB72A977C
:1021D0000FB6F894DEBF0FBECDBFA0903103B09014
:1021E000320381E090E090933203809331038AE4DC
:1021F000C82E88E0D82E00E0760110E015C0F4016A
:1022000025913491472D612F802F0E948B1082E001
:10221000880E911C7394E5E07E12F1CFFAE0EF0E88
:10222000F11C1F5F153019F04701712CE8CF0F5FCB
:1022300082E3C80ED11C0430F9F68E010F5F1F4FE8
:102240008AE0F80111928A95E9F74AE050E06FEED2
:1022500070E0C8010E9403354AE050E069EF70E089
:10226000C8010E9403354AE050E063E071E0C80114
:102270000E9403354AE050E06DE071E0C8010E9421
:102280000335B0923203A09231032A960FB6F89428
:10229000DEBF0FBECDBFDF91CF911F910F91FF9099
:1022A000EF90DF90CF90BF90AF909F908F907F90F6
:1022B000089580E00E94C01060E086E290E00E94F5
:1022C000DF340E94D8100E947B1081E00C94C01073
:1022D0000F931F93CF93DF93843030F5653020F553
:1022E000453010F5C42FD0E0CC0FDD1F2AE0629FEF
:1022F000C00DD11D112432E3839FC00DD11D1124C7
:10230000CE0187960E94CB34082F10E0102F0027B3
:10231000CE0188960E94CB349801282BC901DF9109
:10232000CF911F910F91089590E080E0F8CF462F54
:102330002091350330913603232B91F47E3F39F4FD
:102340006E3F71F48091330390913403089584308B
:1023500038F4753028F4653018F4672F0C94681140
:1023600090E080E00895CF92DF92FF920F931F9349
:10237000CF93DF936C010091F1038091BB02082B96
:10238000C7E0D0E010E0FC2EC8010C2E02C09595ED
:1023900087950A94E2F780FD0CC02197A0F7F12CF5
:1023A0008F2DDF91CF911F910F91FF90DF90CF90F4
:1023B0000895B6018C2F0E9497110E94740B01970B
:1023C00061F3EECFCF93DF93EC010E94B311BE0116
:1023D0000E949711DF91CF910C94740BFC018681C0
:1023E0009781009791F00E94740B92959F709630A0
:1023F000B9F080F4925F9F70923080F4803F19F0C2
:1024000058F4883E58F481E00895808191810E94BB
:10241000E211EBCF9A5FEFCF843FA9F380E00895FC
:10242000883E88F3813FD1F7EECF1F93CF93DF93A0
:1024300000D000D00F92CDB7DEB7FC0126813781E6
:102440002115310541F525E0DE01119601900D922F
:102450002A95E1F7FC01228189819A812223B9F032
:102460006623A9F00E94B311182F682F89819A81E1
:102470000E94840D69817A81812F0F900F900F90B7
:102480000F900F90DF91CF911F910C9497110E94A4
:10249000560D182FEFCFC9010F900F900F900F908E
:1024A0000F90DF91CF911F91089583E290E00E94F9
:1024B000CB34883A89F484E290E00E94CB348F32A6
:1024C00059F485E290E00E94CB3491E0823809F023
:1024D00090E0892F8170089580E0FCCFCF9384E055
:1024E00090E00E94CB34C82F82E290E00E94CB346F
:1024F000982F8C2FCF910895CF92DF92EF92FF9279
:102500000F931F93CF93DF93CDB7DEB72A970FB604
:10251000F894DEBF0FBECDBFE9E0F3E088E2DF0153
:102520001D928A95E9F7E2EAF3E08CE1DF011D9262
:102530008A95E9F789E0C82E83E0D82E7F010FEE57
:1025400010E0F701D182C0824AE050E0B801CE012C
:1025500001960E94BB3488E0FE013196D6010190BD
:102560000D928A95E1F789859A85D70113969C93F8
:102570008E931297BAE0CB0ED11CE7E0EE0EF11C61
:10258000065F1F4F0731F1E01F07D9F62A960FB6F5
:10259000F894DEBF0FBECDBFDF91CF911F910F9199
:1025A000FF90EF90DF90CF90089569EE7EEF90E07E
:1025B00080E00E94FD3460E082E090E00E94DF3421
:1025C00060E083E090E00E94DF341092BB0260E0A4
:1025D00084E090E00E94DF3460E082E290E00E94BC
:1025E000DF3460E085E090E00E94DF3460E086E068
:1025F00090E00E94DF346FEF87E090E00E94DF34CC
:1026000040E050E0BA0188E090E00E94F13460E0E0
:102610008DE090E00E94DF3440E050E0BA0188E1B4
:1026200090E00E94F13460E087E190E00E94DF34A6
:1026300040E050E0BA018CE190E00E94F13470E09B
:1026400060E080E290E00E94FD3440E050E0BA019A
:1026500088E190E00E94F13480E00E94C0100E9466
:10266000591140E050E0BA018FE090E00E94F1344F
:1026700040E050E0BA0183E190E00C94F1341F9205
:102680000F920FB60F9211242F933F934F935F93A6
:102690006F937F938F939F93AF93BF93EF93FF932A
:1026A0008091E10082FF15C08091E20082FF11C09D
:1026B0008091E1008B7F8093E1002091DA032F5F0E
:1026C000822F62E30E943C34992309F4C0C0209316
:1026D000DA038091DA0080FF28C08091D80080FF63
:1026E00024C08091DA008E7F8093DA008091D90037
:1026F00080FFE3C080E189BD82E189BD09B400FEAD
:10270000FDCF81E0809357068FE399E00E94340863
:102710008091DB03811109C00E94D6080E94C9097B
:102720008091E20084608093E2008091E10080FF6C
:102730001BC08091E20080FF17C08091E2008E7F75
:102740008093E2008091E20080618093E2008091BA
:10275000D80080628093D80019BC85E0809357062A
:1027600087E499E00E9434088091E10084FF2FC043
:102770008091E20084FF2BC080E189BD82E189BDA8
:1027800089B5982F917080FFFBCF8091D8008F7D05
:102790008093D8008091E1008F7E8093E10080914A
:1027A000E2008F7E8093E2008091E200816080935E
:1027B000E2008091E803882309F489C084E08093D3
:1027C00057068BE499E00E94340880915706809167
:1027D000E10083FF2BC08091E20083FF27C080913E
:1027E000E100877F8093E10082E08093570610929A
:1027F000E8038091E1008E7F8093E1008091E20008
:102800008E7F8093E2008091E20080618093E200FD
:1028100042E060E080E00E9497098091F0008860CB
:102820008093F0008FE499E00E943408FF91EF91CB
:10283000BF91AF919F918F917F916F915F914F91D8
:102840003F912F910F900FBE0F901F9018951092EF
:10285000DA038091D903882309F43BCF809157068E
:102860008430C1F49091E9009F702091EC00822F98
:10287000817020FD80E8892B95E09093E90090918C
:10288000EB0090FF04C09091EE0097FD08C08F70A0
:102890008093E9001092D9031CCF1092F10090911F
:1028A000E80095FDFACF9091E80090FFF0CF90916D
:1028B000E8009E779093E800EACF19BC1092570683
:1028C00083E499E00E9434081092DB032ECF8091BC
:1028D000E30087FD93E09093570673CF78941F929F
:1028E0001FB61F9211248F939F93AF93BF93809134
:1028F000D1039091D203A091D303B091D403019658
:10290000A11DB11D8093D1039093D203A093D30353
:10291000B093D403BF91AF919F918F911F901FBE31
:102920001F9018959C014FB7F8948091D103909116
:10293000D203A091D303B091D4034FBF821B930B5A
:1029400008958091F5039091F603019719F080E0C6
:1029500081700895809129048823C9F38091F70339
:102960009091F8030E94921421E0813D974008F075
:1029700020E0822FEDCFCF93C0914B04CC2331F0D8
:1029800010924B04C0E08C2FCF9108950E94A114A7
:10299000882321F087E10E94190EF5CFC1E0F3CF23
:1029A0002FB7F8948091D1039091D203A091D303D3
:1029B000B091D4032FBF0895CF93DF93EC018881AA
:1029C0008D3F29F08FEF8883DF91CF9108950E948A
:1029D000D0149093F8038093F70389818B30F1F042
:1029E00030F4833071F08A3011F11982EDCF8C30E0
:1029F00009F18D30D1F788E1FE013296A1E1B4E012
:102A000012C08A819B819827892798279093F60383
:102A10008093F5031A8281E08B83D6CF88E1FE0193
:102A20003296A9E2B4E001900D928A95E1F781E037
:102A30008983CACF88E1FE013296A9EFB3E0F3CFD4
:102A40006F927F929F92AF92BF92CF92DF92EF925E
:102A5000FF920F931F93CF93DF9300D000D00F927C
:102A6000CDB7DEB78E010F5F1F4F85E0F8011192E1
:102A70008A95E9F793EFE92E91E0F92E28EFC22E1F
:102A800021E0D22E99249394AA24A394B12CF70187
:102A900081917F018F3F09F449C0F894E82FE295B6
:102AA000EF70F0E021A18F70A50102C0440F551F07
:102AB0008A95E2F7CA01922F982B91A392A1809553
:102AC000892382A3789400C088EF682E81E0782E55
:102AD000D801692D6095F30191913F018D919D0180
:102AE000215031099F3F09F464C0492F42954F702E
:102AF00050E0FA0140A150E09F7002C05595479503
:102B00009A95E2F740FD55C08929F9018083FDEFD0
:102B10006F16F1E07F06F9F6F701319780818F3F5C
:102B200011F00E941A0B40EA4A95F1F7990CCE1465
:102B3000DF0409F0ACCF45E050E0B8018FEB92E044
:102B40000E94A734FF24F394009709F4F12C892BF9
:102B500091F185E0F801AFEBB2E001900D928A951A
:102B6000E1F781E08093BE020E94D0149093BD02F1
:102B70008093BC028091BC029091BD020E9492148D
:102B80000597E8F08091BF02809304038091C00212
:102B9000809305038091C102809306038091C20255
:102BA000809307038091C302809308031092BE02B2
:102BB00006C08623AACF8091BE028111DBCF8F2D64
:102BC0000F900F900F900F900F90DF91CF911F916A
:102BD0000F91FF90EF90DF90CF90BF90AF909F90BC
:102BE0007F906F9008958091B70290913F03892B59
:102BF00080934C028091BA02882319F10E94D0146C
:102C00002091B8023091B902821B930B883893410E
:102C100010F00E94FC0C80914C029091BA02892B1A
:102C200080934C0220E08EE492E0FC013191CF01D0
:102C300031112F5FF2E084359F07B9F721110E940F
:102C4000FC0C48E050E06FEA72E08CE492E00E94F5
:102C5000A734892BA9F088E0ECE4F2E0AFEAB2E017
:102C600001900D928A95E1F7E091CC03F091CD03AC
:102C7000309731F00280F381E02D8CE492E00994EA
:102C8000089590E080E00E94AF0A90E080E00E940A
:102C9000990A10923F030C94F3158093F1030C945E
:102CA00041168091F103982F9670963019F4886040
:102CB0000C944D16877FFCCF21E030E001C0220F3D
:102CC0008A95EAF720958091F10382230C944D16A2
:102CD0009091AE02809589238093AE02282F2770B1
:102CE00091F4282F082E000C330B9217130659F07D
:102CF0009091C50292FD07C08595859585950E94A6
:102D00005C160C940E0D0895CF93C091C502C2FBC2
:102D1000992790F9981799F080FBC2F9C093C502E2
:102D20006091C40284E090E00E94DF346C2F82E264
:102D300090E00E94DF3482E0CF910C946816CF912E
:102D4000089521E030E001C0220F8A95EAF78091D2
:102D5000F103822B0C944D16CF93C82F8091F10371
:102D60000E94CD0DCC2329F0C1E0833031F4C0E0C6
:102D700005C0C3E0882311F0CFEFC80F80E00E94A8
:102D80004D1680E00E94A1168C2FCF910C94A116B5
:102D900081E00E94AC1680E008958093BB020C9401
:102DA00041161092B702EEE4F2E086E0DF011D92D8
:102DB0008A95E9F70C9441161F93CF93DF93CDB713
:102DC000DEB7AA970FB6F894DEBF0FBECDBF89EE6F
:102DD00093E02091F100DC012D93CD01B3E0813F20
:102DE0009B07B9F78091EA03833009F472C0B8F405
:102DF000813009F449C0823009F4B3C08091E80001
:102E000083FF9CC28091E9039091EA039A3008F015
:102E100095C2E92FF0E0E35EFA4C0C945C348A3002
:102E200009F48EC08B3009F471C0893039F7809174
:102E3000E903813219F78091ED039091EE03009739
:102E400011F00297D9F68091E800877F8093E8001F
:102E50008091E80082FF38C09091F3008091F200E9
:102E6000029731F48091F100813011F0863021F425
:102E70008091F1008093DD038091E8008B7780934F
:102E8000E8000E947809BACF8091E903813A09F0FD
:102E9000B5CF8091E800877F8093E8008091ED03B3
:102EA0009091EE03892B61F468E08EED93E070E081
:102EB0000E942A0A8091E8008B778093E8009ECFD9
:102EC00060E090E080E0F3CF809157068111C0CFA1
:102ED00095CF8091E903813A09F090CF8091ED037D
:102EE0009091EE03892B09F089CF8091E800877FCC
:102EF0008093E8008091E80080FFFCCF809114016E
:102F00008093F1008091E8008E77B9CF8091E9033A
:102F1000813209F073CF8091ED039091EE03892BFC
:102F200009F06CCF8091E800877F8093E8000E94D1
:102F300078098091EB03809314010E94D1165ECF33
:102F40008091E903813209F059CF8091E800877FB1
:102F50008093E8000E9478098091EC038093DC0361
:102F60004DCF8091E903813A09F048CF8091E80084
:102F7000877F8093E8008091E80080FFFCCF8091FC
:102F8000DC03BECF803899F0823809F0D7C1809138
:102F9000ED038F70873008F0D1C18093E9008091F4
:102FA000EB0085FB882780F91092E90006C080912C
:102FB000E6039091E703911182609091E800977F7A
:102FC0009093E8008093F1001092F1008091E80066
:102FD0008E77B0C1882309F49EC1823009F0AEC15A
:102FE0008091EB038111A1C18091ED038F702FEFD0
:102FF000280F263008F0A2C18093E9002091EB0051
:1030000020FF93C1933031F48091EB008062809374
:10301000EB008BC19091EB0090619093EB0021E06D
:1030200030E001C0220F8A95EAF72093EA0010925F
:10303000EA008091EB008860EACF81117FC1109196
:10304000EB031F778091E3008078812B8093E3006E
:103050008091E800877F8093E8000E947809809142
:10306000E80080FFFCCF8091E30080688093E3005C
:1030700082E0111183E08093570660C1805882304E
:1030800008F05CC12091EB033091EC032C3DE3E0B0
:103090003E07A1F583E08A838AE289834FB7F894DB
:1030A000DE01139620E03EE051E2E32FF0E0509382
:1030B0005700E49120FF03C0E295EF703F5FEF708F
:1030C0008E2F90E0EA30C0F0C7968D939D932F5FCE
:1030D000243159F74FBF8091E800877F8093E80043
:1030E0006AE270E0CE0101960E942A0A8091E8000F
:1030F0008B778093E80022C1C096E7CF8091ED03E3
:103100009091EE03432F55274330510509F44AC0EF
:1031100078F54130510509F485C08BE790E0E3E58F
:10312000F9E04230510509F009C12091E800277FFC
:103130002093E8002091EF033091F003821793076A
:1031400008F49C0140E02115310509F070C04111DF
:103150006EC08091E80082FDC9CF80915706882318
:1031600029F2853019F28091E80083FFF2CFBECFBB
:103170004132510509F447C04232510509F0DEC021
:103180008430910508F0DAC0FC01EE0FFF1FE65C09
:10319000FD4F0190F081E02D8A5C9D4FDC018C9108
:1031A00090E01DC0332721303105E9F021153105AC
:1031B00079F022303105F9F02330310509F0BEC035
:1031C000E0EEF9E0E4918E2F90E0E0EEF9E007C048
:1031D000ECE2FAE0E4918E2F90E0ECE2FAE0009766
:1031E00009F4ACC0A2CFE6E1FAE0E4918E2F90E0C2
:1031F000E6E1FAE0F4CFEEEFF9E0E4918E2F90E013
:10320000EEEFF9E0ECCF8430910508F097C0880F1D
:10321000991FFC01EE5BFD4F0190F081E02D89E0EC
:1032200090E083CF82E190E0EEECF9E07ECF8091F8
:103230005706882309F45ACF853009F457CF809177
:10324000E80083FD53CF8091E80082FD82CF80911A
:10325000E80080FF78CF9091F3008091F200211573
:10326000310519F08830910550F041E0089709F0D8
:1032700040E08091E8008E778093E80064CF44912D
:103280004093F1003196215031090196E8CF803802
:1032900009F054C08091E800877F8093E800809116
:1032A000E8038093F10092CE811148C01091EB03A6
:1032B000123008F043C08091E800877F8093E800D7
:1032C0001093E8030E947809112311F084E005C0EF
:1032D0008091E30087FDFACF81E08093570642E0BA
:1032E00061EC81E00E94970942E261EC84E00E9477
:1032F000970942E261EC82E00E94970942E260ECA9
:1033000083E00E94970942E261EC85E00E94970900
:103310008091570613C08091EB03813079F481E0EE
:10332000933009F080E08093E7031092E9008091E8
:10333000E800877F8093E8000E9478098091E80088
:1033400083FF0AC08091E800877F8093E800809126
:10335000EB0080628093EB00AA960FB6F894DEBF74
:103360000FBECDBFDF91CF911F9108951F920F9295
:103370000FB60F9211242F933F934F935F936F9348
:103380007F938F939F93AF93BF93CF93DF93EF93ED
:10339000FF93D091E900DF708091EC00C82FC170DD
:1033A00080FDC0E81092E9008091F000877F809353
:1033B000F00078940E94DC161092E9008091F000F1
:1033C00088608093F000CD2BCF70C093E900FF910F
:1033D000EF91DF91CF91BF91AF919F918F917F91AD
:1033E0006F915F914F913F912F910F900FBE0F9072
:1033F0001F901895882341F0809590913F03892371
:1034000080933F030C94F3150895882339F090912D
:103410003F03982B90933F030C94F3150895882352
:1034200021F00E94070D0C94F3150895882339F0BC
:103430009091B702982B9093B7020C94F3150895CE
:10344000882309F44FC0823869F40E94C50A81FFBD
:1034500049C089E30E942D0D0E94F31589E30E9463
:103460001B0D2BC0833859F40E94C50A80FF3AC057
:1034700083E50E942D0D0E94F31583E5F0CF84387B
:1034800059F40E94C50A82FF2DC087E40E942D0DC9
:103490000E94F31587E4E3CF9CEF980F913AF8F27E
:1034A00090E2980F983058F4877091E001C0990F1E
:1034B0008A95EAF7892F0E94070D0C94F3159BE576
:1034C000980F933020F490E080E00C94AF0A98E5D8
:1034D000980F973120F490E080E00C94990A8F3B8C
:1034E00009F4BDCF0895CF93DF93EC010E94201A19
:1034F000CE010E94DE0D9E01205E3109283031058B
:1035000010F0CD2B21F4DF91CF910C940F1ADF91A5
:10351000CF910C94FA19CF93C82F882309F48CC04B
:103520008238C1F40E94C50A81FD86C089E30E94E9
:103530002D0D0E94F3152FEF81EE94E02150804075
:103540009040E1F700C0000089E30E941B0DCF917D
:103550000C94F3158338A1F40E94C50A80FD6CC059
:1035600083E50E942D0D0E94F3152FEF81EE94E06C
:10357000215080409040E1F700C0000083E5E5CF96
:103580008438A1F40E94C50A82FD56C087E40E94D7
:103590002D0D0E94F3152FEF81EE94E02150804015
:1035A0009040E1F700C0000087E4CFCF8CEF8C0F94
:1035B000813A68F4EEE4F2E08191C817B9F122E0B3
:1035C000E435F207C9F78C2F0E942D0DC0CF80E2A1
:1035D0008C0F883068F4C77021E030E001C0220F02
:1035E000CA95EAF78091B702822B8093B702AFCFDA
:1035F000EBE5EC0FE33040F4F0E0EE53FE4F80815A
:1036000090E0CF910C94AF0AE8E5EC0FE73150F46D
:10361000F0E0EE0FFF1FEB53FE4F80819181CF91C1
:103620000C94990ACF3B41F48FEBCECF8C2F0E94A4
:103630001B0D0E94F315C7CFCF9108951F93CF9311
:10364000DF93182FD0E0C0E0893311F4C0E5D0E05B
:10365000812F0E948B1A209731F4812FDF91CF9117
:103660001F910C94201A8FE99FE00197F1F700C099
:1036700000002197F0CF0F931F93CF93DF93C62FB6
:10368000D42F022FFC0182818823A1F06093F403E0
:103690000E94D0149093F3038093F203C77081E0EB
:1036A00001C0880FCA95EAF7DF91CF911F910F9162
:1036B0000C94161A8091F403681335C08091F203BC
:1036C0009091F3030E949214883C910560F510E2FA
:1036D0001D0FCD17B9F080E28C0F883040F4C77011
:1036E00081E001C0880FCA95EAF70E940F1A1830CE
:1036F00048F481E09D2F977001C0880F9A95EAF7F2
:103700000E94161A802F0E941E1B183098F4D77042
:1037100081E001C0880FDA95EAF7DF91CF911F9120
:103720000F910C940F1AC77081E001C0880FCA95E1
:10373000EAF7F3CFDF91CF911F910F910895DF92B8
:10374000EF92FF920F931F93CF93DF93E82FF0E058
:10375000E356FB4FD490282F26952695269530E0EA
:10376000F901E357FB4F0491877010E0082E02C067
:10377000159507950A94E2F701701127F901E358AE
:10378000FB4FE490F12C082E02C0F594E7940A94C4
:10379000E2F791E0E922FF24F901E359FB4FC491DC
:1037A000D0E002C0D595C7958A95E2F7C170DD27B4
:1037B0000115110519F081EE0E948B1AE114F10434
:1037C00019F086EE0E948B1A8D2D0E941E1BEF2889
:1037D00019F086EE0E94201A012B19F081EE0E944A
:1037E000201ACD2B51F08CE2DF91CF911F910F91D8
:1037F000FF90EF90DF900C941E1BDF91CF911F91F3
:103800000F91FF90EF90DF900895FF920F931F9319
:10381000CF93DF938C018AE0F82EF80184918823FE
:1038200009F44BC0813009F044C0E8012196FE0143
:103830008491813049F42196FE0184910E941E1BDF
:103840008E010F5F1F4FE9CF823039F4E8012296D5
:10385000FE0184910E948B1AF3CF833039F4E80182
:103860002296FE0184910E94201AEACF843041F70B
:10387000E8012296FE01249190E080E0FE0131965D
:103880002053330B2A30310548F00197C8F2EFE995
:10389000FFE03197F1F700C00000F7CFF89EA001DC
:1038A000F99E500D1124C901840F951F2491EF0139
:1038B000E5CF0E949F1BE801C3CFDF91CF911F91FD
:1038C0000F91FF90089590914B049923B9F1909135
:1038D0003E048823E1F090FF4BC088E1E9E2F4E088
:1038E000A1E1B4E001900D928A95E1F788E1E9EF5A
:1038F000F3E0A9E2B4E001900D928A95E1F789EF37
:1039000093E00E940F0E84E10E94190E31C091FFD6
:103910002FC088E1E9E2F4E0A9EFB3E001900D9255
:103920008A95E1F788E1E1E1F4E0A9E2B4E00190F1
:103930000D928A95E1F781E194E0E3CF2091430471
:1039400030914404215031092230310550F588234B
:1039500089F080E00E94AC16809143049091440469
:10396000019751F482E090E09093440480934304E3
:1039700081E0089581E0EECF809141041F928F9302
:10398000809142041F928F9388E39AE09F938F93D4
:103990000E94CD080F900F900F900F900F900F90F6
:1039A000E7CF882359F00E94A114882311F086E103
:1039B000ABCF84E39AE00E94051CDACF0E94A114E9
:1039C000882311F085E1A0CF80E39AE0F4CF1F9324
:1039D000CF93DF93EC011AE08881882309F43EC07D
:1039E0008130C9F599818A81913029F422960E940B
:1039F0001E1B2196F1CF923021F422960E948B1A41
:103A0000F8CF933021F422960E94201AF2CF9430FE
:103A100011F02196EECF229630E020E0AE014F5F0C
:103A20005F4F8053990B8A30910550F02150310936
:103A300000F38FE99FE00197F1F700C00000F6CF97
:103A4000129FB001139F700D11249C01260F371F88
:103A50008981EA01E3CF0E949F1BCBCFDF91CF91F9
:103A60001F910895CF93DF93EC018091D90280FFDD
:103A700020C085E993E00E94051C2FEF8AE693E0C1
:103A8000215080409040E1F700C00000CE010E942C
:103A9000E71C8091D90280FF0FC08FE39CE901975A
:103AA000F1F700C0000087E893E0DF91CF910C941C
:103AB000051C8BE893E0DFCFDF91CF910895CF9382
:103AC000DF93EC010E94DE0D9E01205E310928305B
:103AD000310510F0209739F40E94161A8C2FDF91CF
:103AE000CF910C948B1A0E94051AF8CFFC01865ACC
:103AF0009D454F9708F0C0C0E75AFD45EE31F105EE
:103B000020F4E95DFA4C0C945C3489E694E00E9460
:103B1000051C3AC085E694E0FACF8DE594E0F7CF36
:103B200085E594E0F4CF8091D90280FF03C08BE457
:103B300094E0EDCF81E494E0EACF8091D90280FF58
:103B400003C087E394E0E3CF8DE294E0E0CF83E22B
:103B500094E0DDCF8091D90280FF03C089E194E039
:103B6000D6CF81E194E0D3CF8DE094E0D0CF89E04F
:103B700094E0CDCF85E094E0CACF81E094E0C7CF58
:103B800081E391E00E94321D80E0089589E491E094
:103B9000F9CF84E791E0F6CF8DE991E0F3CF8FEB99
:103BA00090E00E945F1D8BE00E941E1B8FEB90E057
:103BB0000E94731AE9CF8DEF93E0A9CF89EF93E0CC
:103BC000A6CF85EF93E0A3CF8091D90280FF03C0F9
:103BD0008BEE93E09CCF81EE93E099CF8FEB90E05A
:103BE0000E945F1D8DED93E00E94051CDFCF8FEBDF
:103BF00090E00E945F1D83ED93E0F6CF8FEB90E0A5
:103C00000E945F1D8FEC93E0EFCF8091D90280FF7F
:103C100003C085EC93E07BCF8FEB90E00E945F1DAB
:103C200081EC93E0E1CF8091D90280FF03C087EB64
:103C300093E06DCF8FEB90E00E945F1D83EB93E0EC
:103C4000D3CF8FEB90E00E945F1D8FEA93E0CCCF43
:103C50008FEB90E00E945F1D8BEA93E0C5CF8FEB66
:103C600090E00E945F1D87EA93E0BECF83EA93E075
:103C70004ECF8FE993E04BCF81E008959091C5023C
:103C800092FD10C098E0899F90011124622B6093EF
:103C9000AE020E94A1160E94D0149093AD028093B0
:103CA000AC0208950C94A116EF92FF921F93CF934C
:103CB000DF93EC017B01FA018981218128139AC0ED
:103CC00088813081381396C012818A819B811123AB
:103CD000E1F0892BC1F41F923F931F922F938EE145
:103CE00093E09F938F930E94CD0881E090E09B83A7
:103CF0008A830E94D0149D838C830F900F900F9025
:103D00000F900F900F9010E061C0019709F04AC02A
:103D10008C819D810E94921429813881843F914039
:103D200008F05BC01F923F931F922F9383EA92E0AB
:103D30009F938F930E94CD08E885F985C701099567
:103D40000F900F900F900F900F900F90882351F1CC
:103D500088811F928F9389811F928F9380EC91E0CD
:103D60009F938F930E94CD08C7010E94761D0F90EC
:103D70000F900F900F900F900F90882399F0C7012C
:103D80000E945F1D89E3E816F10449F49FEF27EED6
:103D900043E0915020404040E1F700C00000C701DF
:103DA0000E94731A88811F928F9389811F928F932B
:103DB0008AE691E09F938F930E94CD081B821A821E
:103DC0000F900F900F900F900F900F90812FDF9119
:103DD000CF911F91FF90EF9008951F923F931F92F4
:103DE0002F9386E292E09F938F930E94CD08EE81FD
:103DF000FF81A4CF11E0EACF9F92AF92BF92CF9202
:103E0000DF92EF92FF920F931F93CF93DF9300D037
:103E100000D0CDB7DEB77C01FC0183819481892B72
:103E200031F08081918189238F3F09F03AC50F904D
:103E30000F900F900F90DF91CF911F910F91FF90F6
:103E4000EF90DF90CF90BF90AF909F900895980132
:103E500022513F452031310508F0C3C48FEF93E074
:103E60000E94CB345EEED52ED00E07E111E0882300
:103E7000E1F08091AE028770D1F2F7018281882350
:103E8000B1F28091C50282FDD2CF82E00E94681615
:103E9000CECF0115F4E01F0761F3C8010E94CB34B7
:103EA000811101C0DA940F5F1F4FD110F2CF198238
:103EB0001A821B821C8299249A9468012FEFC21ADD
:103EC000D20AC8010E94CB3489831A82882389F2DE
:103ED000813009F074C0580132E0A30EB11CC60154
:103EE0000E94CB34C82E8A83882319F2C5010E9410
:103EF000CB34D82E8FEF8C0D833068F4580143E01B
:103F0000A40EB11CDB82DD2021F0CE0101960E94BF
:103F1000E71C8501D2CF8BEF8C0D833040F5C801B3
:103F20000396DB825C01DD20A1F3580154E0A50E6D
:103F3000B11C0E94CB348C83882359F30B811C81E4
:103F400001308FEF180710F0102F002796E0C916E8
:103F500051F0E7E0CE1619F0C8010E94C92AC80145
:103F60000E949A2AD6CFC8010E94C92AD2CFF4E073
:103F7000CF12CFCF580124E0A20EB11CC801039686
:103F80000E94CB34DD2009F474CF882309F471CF6B
:103F90008150990B989E9001999E300D11244D2DC2
:103FA0004150550BCA01820F931F019708F4B1CFFE
:103FB000EFE9FFE03197F1F700C00000F6CFCE0146
:103FC00001960E94E71C5601A4CF81E00E94A11631
:103FD0000E9451164ECF81E00E945C16F9CF82E01C
:103FE000F5CF053F8CE5180709F4AEC008F4A8C06A
:103FF00027E245EE66EE063FECE51E0709F44DC4E8
:10400000F7018281882309F461C41092F40303301C
:10401000FDE51F0708F09FC00A3F2CE5120730F4AA
:10402000C80182509C45449708F09FC00E946E12C0
:104030009093C5028093C40201315CE5150709F431
:1040400069C108F0E6C009309CE5190709F454C1BC
:1040500008F0B0C00530FCE51F0709F441C108F0C5
:1040600099C003303CE5130709F430C108F034C1AE
:104070008091C402816002301C4509F42AC160911C
:10408000C4021091C50284E090E00E94DF34612FE9
:1040900082E290E00E94DF340E94D116EACE808155
:1040A000811140C081818430E9F580914304909171
:1040B000440401970297B0F59091D902892F8E7F21
:1040C00090FF81608093D9024091D9025091DA0229
:1040D0006091DB027091DC0283E190E00E94F13498
:1040E0008091430490914404019739F482E090E078
:1040F0009093440480934304BCCE809141041F926A
:104100008F93809142041F928F9388E39AE09F934C
:104110008F930E94CD080F900F900F900F900F90EB
:104120000F90A7CEC8010E94761D81119DC3A1CE1C
:1041300027E245EE65EEB1C326E241EE60EEADC387
:1041400027E245EE64EEA9C326E241EE62EEA5C386
:1041500028E241E0EFCF01363DE5130709F466CFD1
:10416000053A4DE5140709F461CF06318CE51807CF
:1041700009F0B7C38091B7028A7A91E009F490E020
:10418000909354028111F0C089E20E942D0D0E948B
:10419000F3156FCE07308CE5180709F4A9C080919C
:1041A000C402806108301C4508F493C08091C402A9
:1041B00080648FC08091C4028B7F0D30ECE51E07B8
:1041C00009F487C098F48091C4028E7F0B302CE5EF
:1041D000120709F47EC08091C4028C600C301C452B
:1041E00008F477C08091C4028D7F73C08091C402AF
:1041F0008F7E0F304CE5140709F46BC08091C40228
:10420000877F00311C4508F464C08091C4028F7D13
:1042100060C00D3F8CE5180709F478C050F50531F2
:10422000ECE51E0709F480C098F48091C402837FF6
:1042300003312CE5120709F44CC008F46FC00E944A
:10424000D1169091C402892F97FB87F9805841C0FD
:104250000B3F4CE5140709F447C008F053C00A3F70
:104260001C4509F00CCF8091C50281608093C50286
:1042700006CF01309DE5190709F462C0B8F48091BA
:10428000C5028C7F0F3FFCE51F0781F38091C502BB
:10429000836001151D4550F38091C502982F9095BC
:1042A00091708E7F892B90FB81F9E0CF01363DE53F
:1042B000130709F44BC0053A4DE5140709F44DC046
:1042C00002301D4509F0DBCE60E03BC08091C402A6
:1042D00082608093C402D3CE8091C4028460F9CFFF
:1042E0008091C4028860F5CF8091C5028260BECF04
:1042F0008091C4028062EDCF0E94D1168091C402E9
:104300008068E7CF8091C5028E7FB0CF8091C502D3
:104310008D7FACCF8091C4028F7BDBCF0E94D11602
:104320008091C4028F77D5CF8091C40282FB9927F8
:1043300090F921E0922790FB82F990FB83F9C9CF95
:1043400061E08EE090E00E94DF3499CE9091C4024B
:10435000892F8F7E94FF8061BCCF9091C402892FFA
:104360008E7F90FF8160B5CF85E30FCF85E3B6C226
:104370000E94D1169FEFE4E3FCE09150E040F04052
:10438000E1F700C000000E94571081E0CAC280E03F
:10439000C8C2828100811181882369F0C8010E940E
:1043A000B311D82E682FC8010E94840DB8018D2D3D
:1043B0000E949711BEC2C8010E94560DD82EF6CF9A
:1043C0008FEBCC2009F4EFC00E948B1A492D485086
:1043D000550B4430510510F40E94C50AAA20A9F0DB
:1043E0008091AE0280FD11C0F701128285958595FE
:1043F00085950E94A116C7010E94FC1E8091AE0205
:104400008595859585950E945C1660E0C7010E94A0
:1044100015120DCD212F2F70D22E107F19F0D294AE
:1044200090EFD922CC20B9F0DD2069F080E2800F36
:10443000883010F0011109C08091B702D82AD092BB
:10444000B7020E94F315802FBFCF80913F03D82A77
:10445000D0923F03F6CF802F0E94201ADD2009F46E
:10446000B5CF80E2800F883010F0011104C08D2D8F
:104470000E94070D06C0D09480913F03D822D092AD
:104480003F030E94F315A2CF312F3F70D32E107F30
:10449000103219F0D29480EFD822002381F001303D
:1044A00009F467C0CC2009F470C0BB2009F445C0F2
:1044B000F701858180FFC7CF8F7085833EC08091D3
:1044C000C50282FF14C0CC2059F0DD2039F0809164
:1044D000B702D82AD092B7020E94F31580E074CFB9
:1044E00080E00E94201ADD2009F470CFC0CFCC20DC
:1044F00041F1B11004C08091BA028D291FC041E082
:10450000B41211C082FD62CF8091BA02D82AD816A7
:1045100009F45CCF0E94D0149093B9028093B80242
:10452000D092BA0253CF55E0B512E5CF0E94FC0CF1
:104530008091AB02D812D092AB028D2D0E94161A38
:1045400045CFB11006C00E94FC0C8D2D0E940F1AA1
:104550003DCF81E0B81208C08091B7028D2109F4E7
:1045600035CF0E94150DEFCF95E0B91609F42ECF87
:10457000EACFCC2029F0E5E0EB1508F427CFDDCF1A
:10458000F4E0FB1508F422CFE0CFBB20F1F20933B1
:1045900049F4FFEF27EE33E0F15020403040E1F7DF
:1045A00000C00000802F0E94201A10CF812F869516
:1045B0008695837061F0813009F008CFC80193704F
:1045C000C11002C090E080E00E94990AFFCEC801AD
:1045D0009370C11002C090E080E00E94AF0AF6CE56
:1045E000812F837089F5C110F1CE402F42954695F9
:1045F0004770440F440F802F8F70042E01C0880F26
:104600000A94EAF7202F207104FF07C02FE030E062
:1046100001C0220F4A95EAF720951695169513705A
:10462000123069F050F43091BB02113029F0822B26
:1046300083230E94CD16CACE832B822BFACF282B40
:104640008091BB028227F5CF8695CC2011F0812F77
:104650008170882309F4BACE402F42954695477061
:10466000440F440F802F8F70042E01C0880F0A94CE
:10467000EAF7202F207104FF07C02FE030E001C0CF
:10468000220F4A95EAF72095169516951370123069
:1046900069F050F43091F103113029F0822B83231B
:1046A0000E944D1693CE832B822BFACF282B80911C
:1046B000F1038227F5CF1F70CC2029F0812F0E94B3
:1046C000A116802F3BCF802F0E940F1A812F0E94AE
:1046D0005C167CCE023F81F160F4003FB9F0013FEF
:1046E00081F0CC2009F46DC0B110ADCE812F8F7157
:1046F00027C0033F41F1043FA1F78091C50282FF2B
:104700002DC0812F8F71CC2011F31AC0CC2079F0ED
:1047100044E04B1508F45ACE1F7181E090E001C0CF
:10472000880F1A95EAF79091F1038927B9CF55E0E0
:104730005B1508F44BCEF0CF812F8F71C110C7CF1E
:104740000E94A11643CE80E0CC2009F4A9CF1F71AE
:1047500081E001C0880F1A95EAF7A2CF8091AB02E1
:10476000CC20D9F00E94070D8091AE028770843072
:1047700041F40E940E0D812F8F710E945C16A12CB6
:1047800025CE84E08B15D8F31F71812F0E94A116CE
:1047900063E0812F0E943E1EF2CF9091B702982BCA
:1047A0009093B70294E09B1540F40E940E0D0E9476
:1047B000150D64E0812F8F71EDCF81E00E946816A6
:1047C000DECFBB2059F0093309F0ECCEEFEFF7EE66
:1047D00023E0E150F0402040E1F7E2CE812F8F71DD
:1047E00076CF0031FFE51F0709F4EFCB01312FE54C
:1047F000120709F4F4CBF701858182958F701F921F
:104800008F93858181701F928F9384818F93838191
:104810008F931F929F9381811F928F9380811F920C
:104820008F931F930F938DE195E09F938F930E9439
:10483000CD08A701B80181E494E00E94541E0FB690
:10484000F894DEBF0FBECDBF882309F412CBA701B9
:10485000B80186EC92E00E94541E882309F409CB2B
:10486000F701828181111BCC033FFCE51F0709F48E
:1048700063CC08F0B6CB083D3CE5130709F458CCEF
:10488000093D4CE5140709F463CC073D5CE51507C9
:1048900009F0B6CB26E241EE61EEC7010E943B1B58
:1048A000E8CA61E0C7010E9415128C01F7019281EC
:1048B0009111CDCA00313FE5130709F48CCB0131CA
:1048C0004FE5140709F097CF82E086CB06311C45EF
:1048D00051F580915402811149CD89E20E941B0D4E
:1048E00056CC0A352DE5120709F44FCD58F40115C1
:1048F0004CE5140709F43CCD0E3D1C45A1F40E9483
:10490000D512B7CA0B358DE5180709F440CD0C3523
:104910001D4549F48091C50282FB882780F991E00A
:1049200089270E948416F70186819781009709F4F0
:1049300030CD0E94740B8C01F701C280B580B29417
:104940003FE0B3228091AE028770C1F0AC2CCC2046
:10495000B1F0812F807F803421F080E2800F883099
:1049600068F08091C50282FD09C082E00E9468164D
:104970008091AE028770AA24A3948111A12C912E5C
:1049800092942FE09222FBE0F91508F41FCDE92D57
:10499000F0E0EB5BFA4C0C945C34CF93DF938091A6
:1049A0006602807FA1F480916302882381F0809168
:1049B000AA02D09169026091610270916202A09195
:1049C0006402B0916502C62FC723D81303C0DF91DC
:1049D000CF91089590E0109711F0CF3F19F4019610
:1049E0008770F3CF9C0143E0220F331F4A95E1F714
:1049F000F901E659FD4F41814713F1CF408146133C
:104A0000EECF42814111EBCF438154814A1B5B0BB6
:104A1000483C510520F7809166028F708061809339
:104A20006602F901E159FD4F80818F7080618083BA
:104A300081E692E00E94FC1EDF91CF910C944C0D18
:104A4000AF92BF92CF92DF92EF92FF920F931F939C
:104A5000CF93DF93CDB7DEB765970FB6F894DEBF7F
:104A60000FBECDBF8C0185E0F801DE0151960190AB
:104A70000D928A95E1F7F801E28061E6A62E62E0E8
:104A8000B62E60916402709165026115710509F49A
:104A900068C19091610240916202892F84238F3F07
:104AA00009F45FC120813181C380D480F09063021A
:104AB000F601E61BF70BFF2009F41DC18091660289
:104AC000582F507FE83CF10508F0D0C0511181C04B
:104AD000FE2C43132BC0921329C060916702709182
:104AE0006802F8014681578164177507F9F4E110EF
:104AF0001DC08F70806180936602C5010E94FC1EFC
:104B000080916602F80185838F2D65960FB6F89423
:104B1000DEBF0FBECDBFDF91CF911F910F91FF90F0
:104B2000EF90DF90CF90BF90AF900895CD2829F0FF
:104B3000822F83238F3F09F02FC180E0F82FF1707F
:104B4000DF2E80FF3CC08091AA024091690284134D
:104B500015C0298B3A8B89899A890E94E211292FE5
:104B600022952F702230F8F0243020F59F70F9F054
:104B7000F8019581907FD9F4D12C1FC090E0FC0101
:104B800053E0EE0FFF1F5A95E1F7E659FD4F5181B3
:104B9000351306C05081251303C05281E5120FC0A2
:104BA00001968770D4CF9F7011F0882329F3805E1F
:104BB000883010F3C8010E94FC1EFD2CA5CFEE200A
:104BC00009F4A2CF80916602816080936602F12C85
:104BD0009BCF43131BC0921319C0409167025091A1
:104BE0006802F801268137814217530779F4E110F2
:104BF0000DC08583C8010E94FC1E88E0F801A1E673
:104C0000B2E001900D928A95E1F77ECFC8010E9433
:104C1000EE11882339F1EE2029F18091660280326D
:104C2000A0F020916102309162023A8729871B86A9
:104C3000DD86CC868E878091670290916802988B82
:104C40008F87CE0109960E94FC1E88E0F801A1E63C
:104C5000B2E001900D928A95E1F70E94CD24FF24E5
:104C6000F39452CFC8010E94FC1EF9CF51110AC023
:104C700081E692E00E94FC1E88E0F50111928A957F
:104C8000E9F7A5CF431318C0921316C040916702ED
:104C900050916802F801268137814217530761F469
:104CA000E1100AC08583C8010E94FC1E88E0F5015E
:104CB00011928A95E9F728CFC8010E94EE11882346
:104CC00089F2EE2079F280916602803208F4BDCF3D
:104CD00020916102309162023A8329831B82DD8236
:104CE000CC828E83809167029091680298878F832F
:104CF000CE010196A8CFE83CF105C0F6FE2CEE20CF
:104D000009F4B0CF43131FC092131DC02091670256
:104D100030916802F801868197812817390799F444
:104D20009091660290FD69CF907F09F466CF8091E3
:104D300066028583903F09F45DCF982F907F905F46
:104D40008F70892B56CFC8010E94EE1181117DCF43
:104D500080916602816080936602C8010E94FC1EF9
:104D6000D3CEEE2009F47ECFC8010E94EE11F82EBA
:104D7000882309F477CF88E0F801A1E6B2E001903A
:104D80000D928A95E1F780916102909162020E94F2
:104D9000E2110E94CD24B8CE81E08E25CFCECF93F4
:104DA000DF93CDB7DEB760970FB6F894DEBF0FBEC6
:104DB000CDBF29873A874B875C876D877E878F8732
:104DC000988BCE0109960E942025811112C088E09F
:104DD000FE013996DE01119601900D928A95E1F758
:104DE0008C859D85892B29F089859A8589238F3F1C
:104DF000A9F58091AA029091690289131CC060965E
:104E00000FB6F894DEBF0FBECDBFDF91CF910895EE
:104E100093E0AA0FBB1F9A95E1F7A659BD4F98E002
:104E2000FE01319601900D929A95E1F78093690207
:104E30000E944C0DDECFB8E08B9FC0011124865933
:104E40009D4F0E9420258823D1F28091AA0290E0F4
:104E50000196877099278093AA02CBCFA09169020F
:104E6000B0E0CD010196877099272091AA022817FA
:104E7000190671F60E94D116109269021092AA02C8
:104E800088E0E1E6F2E0DF011D928A95E9F7B1CF13
:104E90000F931F93CF93DF9380914103E0914003E1
:104EA000CCE081111AC0DF91CF911F910F9108952D
:104EB000D1E0DE0FD09340030E2F10E0EC9FF00105
:104EC0001124EE5BFC4F83819481892B29F0808132
:104ED000918189238F3F51F4ED2F80914103E81791
:104EE00038F31092410310924003DDCFC09FD001F0
:104EF000C19FB00D1124AE5BBC4F16968D919C9155
:104F00001797892B29F418968D919C91019651F44D
:104F100020813181428153816481758186819781AD
:104F20000E94CF26C09FF001C19FF00D1124EE5BBF
:104F3000FC4F1482138210923F03CECF1092C9030C
:104F40001092C803109213018091C7038093C60387
:104F50000E94FF0A0C9448273F924F925F926F92F3
:104F60007F928F929F92AF92BF92CF92DF92EF92F9
:104F7000FF920F931F93CF93DF93C091C60397E0E7
:104F8000892E01E010E02CE0322E3EEF932E4424D7
:104F900043948091C7038C1315C00E944827DF916A
:104FA000CF911F910F91FF90EF90DF90CF90BF9026
:104FB000AF909F908F907F906F905F904F903F90B9
:104FC0000C94FF0AD0E0FE01EE0FFF1FE254FC4FED
:104FD00080819181889ED001899EB00D1124AE55AB
:104FE000BC4F14962C911497211157C05090410337
:104FF000E2E4F3E030E020E0712C5D01251508F0DB
:105000004AC0E284F384D501CD90DC906FEF7FEF4E
:10501000612C462D50E0DA01AA0FBB1FAC0DBD1D5F
:105020000D90BC91A02D109731F0EA16FB0609F403
:10503000BA016394EECF6F3F7607A1F1D80102C0A9
:10504000AA0FBB1F6A95E2F77A2AB80102C0660F61
:10505000771F6A94E2F7AB014150510974161506A7
:10506000F9F4329EF001339EF00D1124EE5BFC4FFB
:10507000889ED001899EB00D1124AE55BC4F12966A
:105080002D913C911397378326839082918291874B
:10509000808715964C920E94D10A2196C37079CFD1
:1050A000148213822F5F3F4F3C96A8CF2F923F92DE
:1050B0004F925F926F927F928F929F92AF92BF9228
:1050C000CF92DF92EF92FF920F931F93CF93DF93D4
:1050D000CDB7DEB769970FB6F894DEBF0FBECDBF70
:1050E000498B5A8B6B8B7C8B8D8B611110923F039C
:1050F0001D861E861F86188A85E0FE017196DE01D8
:10510000199601900D928A95E1F78091C50282FD72
:105110001CC00E94D0142091AC023091AD02821BC1
:10512000930B8838934120F08091AE0282FFFEC13C
:105130000E94D0142091B8023091B902821B930BC7
:105140008838934110F00E94FC0C8C859D85892B3A
:1051500031F089859A8589238F3F09F0D3C129854C
:105160003A854B855C856D857E858F8598890E9403
:10517000CF26C2C048EFC4164CE5D40629F48823D4
:1051800079F00E949E27EBCF69EFC6166CE5D60634
:1051900039F4882329F0809113018111F2CFC2C123
:1051A00002EA13E0E12CB12CA12C88248394912CE9
:1051B0002EEF522E44244394F801408151816624FD
:1051C0006A94762C20E0822F90E0FC01EE0FFF1F06
:1051D000E40FF51F608171816115710531F0C6160C
:1051E000D70609F43C012F5FEECFF12CFFEF6F16CD
:1051F0007F0609F443C0F8014481F09013018F2D1C
:10520000411180E0F82FF170FF2EF8012580868192
:105210009B85992309F406C1FF2009F403C12110DD
:1052200013C0A40101C0440F6A94EAF7842B86835B
:1052300080913D0390913E03C29730F462E370E0A9
:1052400070933E0360933D03C40102C0880F991F11
:105250002A95E2F70197F80126812817190671F4BB
:105260008091C8039091C903009709F45EC00E9421
:105270009214C39708F459C0F8014482EF28FFEF55
:10528000AF1ABF0A095F1F4F24E0A216B10409F04C
:1052900093CF8B85882309F420C1EE2009F41DC12A
:1052A0000E94D0149093C9038093C8038091410356
:1052B000883010F591E0980F9093410398E0FE013B
:1052C0003996DE01119601900D929A95E1F73CE036
:1052D000839FC00111248E5B9C4F28E0FE01319614
:1052E000DC0101900D922A95E1F72FEF3FEFFC01D1
:1052F00031872087D386C28669960FB6F894DEBFC1
:105300000FBECDBFDF91CF911F910F91FF90EF9016
:10531000DF90CF90BF90AF909F908F907F906F90D5
:105320005F904F903F902F9008958091C6035091C9
:10533000C703982FF0E0E0E0851314C09093C603F4
:105340000E171F0709F49ACF90E0FC01EE0FFF1F24
:10535000E254FC4FB182A08201968370992780931A
:10536000C7038CCF282E312CF101EE0FFF1FE25422
:10537000FC4F20813181F7E0F29FD001F39FB00D07
:105380001124AE55BC4F2D913C911197398F288F28
:1053900040E020E030E0E32FF0E0EE0FFF1F688DEB
:1053A000798DE60FF71F6080718061147104E1F060
:1053B000F8010190F081E02DFF8BEE8B20E005C01D
:1053C0006616770609F44F2D2F5FE22FF0E0EE0FFF
:1053D000FF1F6E897F89E60FF71F6081718161155C
:1053E000710571F73F5FD7CF4423C9F0F801231748
:1053F00008F0FD014482E017F10721F49093C60301
:10540000F42E3CCF981305C0EA17FB0711F49F5FF9
:10541000937091012F5F3F4F822F83708DCFF0E00B
:10542000E0E0F7CF90E021101FC0B40102C0660F8A
:10543000771F2A95E2F79B012150310982179307C4
:1054400031F4442309F447C0C5010E94D10AC401C4
:1054500001C0880F6A94EAF7982F9095F801868129
:1054600089238683F22C0ACF9C01062C02C0359535
:1054700027950A94E2F7A90141705527BC016150B4
:10548000710986239723892B11F5452B01F1F8012A
:1054900082819381892BC1F01B821C821D821E8216
:1054A00059825A820E94D0148160582F9D838C8328
:1054B000F801828193818F83988729813A814B817A
:1054C0006D817E810E94CF26F8011582C0CFF22F18
:1054D000F1702F2EBCCF2F2CBACF9091C6038091A4
:1054E000C703981731F00E94AC27EE2009F437CE9D
:1054F00003CF0E9448271092C9031092C8030E944C
:10550000FF0AF3CF61E0CE0109960E9415126C01EB
:105510008B85F7EFCF16FCE5DF0609F02BCE88234D
:1055200009F43ECE81E08093130119CE82E00E94FF
:105530006816FECDCF93DF9300D000D00F92CDB789
:10554000DEB79093340380933303811520E29207F2
:1055500048F40F900F900F900F900F90DF91CF9124
:105560000C94731A8EEF89838A831B820E94D01455
:105570008160782F9D838C8349815A816B818D81D5
:105580000F900F900F900F900F90DF91CF910C9490
:105590005628CF93DF9300D000D00F92CDB7DEB75F
:1055A0009093340380933303811520E2920748F4EB
:1055B0000F900F900F900F900F90DF91CF910C9460
:1055C0005F1D8EEF89838A8381E08B830E94D014D4
:1055D0008160782F9D838C8349815A816B818D8175
:1055E0000F900F900F900F900F90DF91CF910C9430
:1055F00056281F921FB61F9211248F939F93AF932B
:10560000BF938091D003811113C08091D1039091F9
:10561000D203A091D303B091D4034196A11DB11D33
:105620008093D1039093D203A093D303B093D40378
:10563000BF91AF919F918F911F901FBE1F901895A2
:10564000CDB7DEB7C954D1090FB6F894DEBF0FBE8F
:10565000CDBF84B7877F84BF0FB6F894A89580919B
:105660006000886180936000109260000FBE80E847
:1056700090E00FB6F89480936100909361000FBEA4
:1056800085B7806885BF85B7806885BF86E99FE05C
:1056900090934B0280934A020E947C120E94D6088B
:1056A0000E94C9098091E20084608093E2007894AE
:1056B000809157068823A1F01091E9001F70909106
:1056C000EC00892F817090FD80E8182B1092E90082
:1056D0008091E80083FD0E94DC161F701093E900A2
:1056E00082E084BD93E095BD9AEF97BD80936E00F4
:1056F0000E945512811102C00E94591103EF11E05E
:1057000038EFE32E31E0F32ED8018D918D018F3FDC
:1057100011F00E941A0BE016F106B1F708EF11E044
:105720002DEFE22E21E0F22EF80181918F018F3FC3
:1057300011F00E941A0BE016F106B1F785E0E4E0E3
:10574000F3E0DF01282F1D922A95E9F7EFEBF2E055
:10575000DF011D928A95E9F790E080E00E94D9343C
:10576000893E9E4F21F40E945512811102C00E9471
:10577000D51282E090E00E94CB348093D0020E9448
:105780006E129093C5028093C4020E942015EFE32D
:10579000FCE93197F1F700C000000E9420158091CC
:1057A000080380FF08C06FEF7FEF90E080E00E9469
:1057B000FD340E94571083E090E00E94CB340E9499
:1057C000CD1682E08093FD0280E880934C040E9415
:1057D00021336DE070E080EF95E00E941B0F892B74
:1057E00009F4FDC084ED95E00E94340826982E9AB5
:1057F00022982A9AAFE8B1E01197F1F700C00000B3
:1058000083B186FB882780F91A9936C190E0892BED
:105810008093D8028091D00283608093D00283E18C
:1058200090E00E94D3346093D9027093DA0280939F
:10583000DB029093DC0284E08093410410924204E6
:1058400010924404109243041092460410924504AE
:1058500088EC96E1909348048093470480E19BE0B4
:1058600090934A04809349041092C60283E0809387
:10587000C7021092C9021092C8021092CB02109275
:10588000CA0282E19BE09093CD028093CC028BEB25
:1058900094E19093CF028093CE021092F60310927F
:1058A000F5031092F8031092F70387E0E5E1F1E0C9
:1058B000DE01929601900D928A95E1F7FE01B9966C
:1058C0008DE0DF011D928A95E9F781E089A38EA919
:1058D0008C7F8EAB8FA98C7F81608FAB18AE88E1F7
:1058E00038979E012F5F3F4F1901D90101900D920A
:1058F0008A95E1F788E1F901A9E2B4E001900D92FF
:105900008A95E1F789EF93E00E940F0E81E194E020
:105910000E940F0E8DEF95E00E94340880E091E028
:105920009093CD038093CC0384E093E035E0380F6F
:1059300028963FAF289780915706853089F487E2F3
:1059400096E00E94340890E4F92E00E112E1809183
:105950005706853009F492C00E94D1160E94C50AEC
:105960000E94201524968FAF249781110E948D0AE2
:1059700011ED612E12E0712E04E0C02E03E0D02E56
:1059800010E000E08DE2A82E86E0B82E27960FAF3B
:105990002797D6015D906D01F30141903F014510BD
:1059A000A8C00F5F1F4F0530110581F78FEF8EAF35
:1059B0008FAF21961FAE21970E94D0148160782F5F
:1059C00023969FAF8EAF23974EAD5FAD21966FADFF
:1059D000219723968FAD23970E945628B2C08091BD
:1059E000FD0263E070E081FD09C081ED95E00E9459
:1059F0001B0F892B61F08BEA95E0F6CE88EA95E0E3
:105A00000E941B0F892B19F080E995E0EDCE6DE027
:105A100070E083E895E00E941B0F892B19F08CE65B
:105A200095E0E2CE0E948D0A605A75418F4F9F4FDC
:105A300060933703709338038093390390933A034C
:105A4000EFE4F4E080E092E0DF019C011D92215040
:105A50003040E1F7F0935606E09355068FEF9FEF45
:105A600090934E0480934D0481E080933C03809397
:105A70003B031092FE02BACE92E0C9CE8091570647
:105A8000843029F10E944B0F1092D00388E190E0FE
:105A90000FB6F894A895809360000FBEF092600056
:105AA00083B7817F846083BF83B7816083BF78942D
:105AB000889583B78E7F83BF0FB6F894A8958091A1
:105AC0006000886180936000109260000FBE80913A
:105AD000E703882309F43BCF0E942015E4E0F3E0BC
